:020000040800F2
:1000000000000220A92200089D200008A32000086B
:10001000A9200008AF200008B5200008000000005B
:10002000000000000000000000000000BB200008ED
:10003000C920000800000000D72000087D1F00082C
:10004000F9220008F9220008F9220008F922000824
:10005000F9220008F9220008F9220008F922000814
:10006000F9220008F9220008F9220008F922000804
:10007000F9220008F9220008F9220008F9220008F4
:10008000F9220008F9220008F92200080000000007
:10009000000000000000000000000000F92200083D
:1000A000F9220008F9220008F9220008F9220008C4
:1000B000F9220008F9220008F9220008F9220008B4
:1000C000F9220008F9220008F9220008F9220008A4
:1000D000F9220008E5200008F922000800000000CD
:1000E000F9220008F9220008F922000800000000A7
:1000F000000000000000000000000000F9220008DD
:1001000000000000F9220008F9220008F922000886
:1001100000000000000000000000000000000000DF
:10012000F9220008F9220008F9220008F922000843
:10013000F92200080000000000000000000000009C
:10014000000000000000000000000000F92200088C
:10015000F9220008F9220008F9220008F922000813
:10016000F9220008F9220008000000000000000049
:10017000000000000000000000000000000000007F
:1001800000000000F922000800000000000000004C
:08019000F9220008F922000821
:1001A00010B5054C237833B9044B13B10448AFF3B1
:1001B00000800123237010BD4402002000000000D5
:1001C0006879000808B5034B1BB103490348AFF336
:1001D000008008BD00000000480200206879000887
:1001E00010F8012B11F8013B012A28BF9A42F7D0E1
:1001F000D01A7047034613F8012B002AFBD1181AB6
:1002000001387047000000000000000000000000FE
:1002100001F0FF01102A2BDB10F0070F08D010F8B7
:10022000013B013A8B422DD010F0070F42B3F6D1BB
:10023000F0B441EA012141EA014122F007047FF0D4
:1002400000070023F0E80256083C85EA010586EA2B
:10025000010685FA47F5A3FA87F586FA47F6A5FA67
:1002600087F68EB9EED1F0BC01F0FF0102F0070273
:1002700032B110F8013B013A83EA010313B1F8D11E
:100280000020704701387047002D06BF35460338FF
:10029000073815F0010F07D1013015F4807F02BF38
:1002A000013015F4C03F0130F0BC0138704700BF89
:1002B00081F0004102E000BF83F0004330B54FEA17
:1002C00041044FEA430594EA050F08BF90EA020F84
:1002D0001FBF54EA000C55EA020C7FEA645C7FEA17
:1002E000655C00F0E2804FEA5454D4EB5555B8BF3A
:1002F0006D420CDD2C4480EA020281EA030382EAAB
:10030000000083EA010180EA020281EA0303362D3C
:1003100088BF30BD11F0004F4FEA01314FF4801C0F
:100320004CEA113102D0404261EB410113F0004F21
:100330004FEA03334CEA133302D0524263EB4303D8
:1003400094EA050F00F0A780A4F10104D5F1200E76
:100350000DDB02FA0EFC22FA05F2801841F10001D1
:1003600003FA0EF2801843FA05F359410EE0A5F1A5
:1003700020050EF1200E012A03FA0EFC28BF4CF0D6
:10038000020C43FA05F3C01851EBE37101F000458C
:1003900007D54FF0000EDCF1000C7EEB00006EEB99
:1003A0000101B1F5801F1BD3B1F5001F0CD3490823
:1003B0005FEA30004FEA3C0C04F101044FEA44527A
:1003C00012F5800F80F09A80BCF1004F08BF5FEA01
:1003D000500C50F1000041EB045141EA050130BDE1
:1003E0005FEA4C0C404141EB0101013C28BFB1F5F3
:1003F000801FE9D291F0000F04BF01460020B1FA3E
:1004000081F308BF2033A3F10B03B3F120020CDA10
:100410000C3208DD02F1140CC2F10C0201FA0CF0EE
:1004200021FA02F10CE002F11402D8BFC2F1200C53
:1004300001FA02F120FA0CFCDCBF41EA0C01904009
:10044000E41AA2BF01EB0451294330BD6FEA040452
:100450001F3C1CDA0C340EDC04F11404C4F120023D
:1004600020FA04F001FA02F340EA030021FA04F34F
:1004700045EA030130BDC4F10C04C4F1200220FAA6
:1004800002F001FA04F340EA0300294630BD21FAE4
:1004900004F0294630BD94F0000F83F4801306BFAA
:1004A00081F480110134013D4EE77FEA645C18BF9E
:1004B0007FEA655C29D094EA050F08BF90EA020F35
:1004C00005D054EA000C04BF1946104630BD91EA2D
:1004D000030F1EBF0021002030BD5FEA545C05D130
:1004E0004000494128BF41F0004130BD14F580046F
:1004F0003CBF01F5801130BD01F0004545F0FE41E3
:1005000041F470014FF0000030BD7FEA645C1ABF17
:10051000194610467FEA655C1CBF0B46024650EA4E
:10052000013406BF52EA033591EA030F41F400217A
:1005300030BD00BF90F0000F04BF0021704730B500
:100540004FF4806404F132044FF000054FF00001D5
:1005500050E700BF90F0000F04BF0021704730B596
:100560004FF4806404F1320410F0004548BF40426B
:100570004FF000013EE700BF42004FEAE2014FEAC0
:1005800031014FEA02701FBF12F07F4393F07F4F9B
:1005900081F06051704732F07F4208BF704793F09E
:1005A0007F4F04BF41F40021704730B54FF46074B1
:1005B00001F0004521F000411CE700BF50EA0102B4
:1005C00008BF704730B54FF000050AE050EA01025D
:1005D00008BF704730B511F0004502D5404261EBCD
:1005E00041014FF4806404F132045FEA915C3FF40E
:1005F000D8AE4FF003025FEADC0C18BF03325FEAAB
:10060000DC0C18BF033202EBDC02C2F1200300FA5B
:1006100003FC20FA02F001FA03FE40EA0E0021FA80
:1006200002F11444BDE600BF70B54FF0FF0C4CF46E
:10063000E06C1CEA11541DBF1CEA135594EA0C0F20
:1006400095EA0C0F00F0DEF82C4481EA030621EA5B
:100650004C5123EA4C5350EA013518BF52EA033596
:1006600041F4801143F4801338D0A0FB02CE4FF048
:100670000005E1FB02E506F00042E0FB03E54FF078
:100680000006E1FB03569CF0000F18BF4EF0010E70
:10069000A4F1FF04B6F5007F64F5407404D25FEA6C
:1006A0004E0E6D4146EB060642EAC62141EA55511F
:1006B0004FEAC52040EA5E504FEACE2EB4F1FD0C61
:1006C00088BFBCF5E06F1ED8BEF1004F08BF5FEADF
:1006D000500E50F1000041EB045170BD06F0004691
:1006E00046EA010140EA020081EA0301B4EB5C043E
:1006F000C2BFD4EB0C0541EA045170BD41F4801136
:100700004FF0000E013C00F3AB8014F1360FDEBF5A
:10071000002001F0004170BDC4F10004203C35DA36
:100720000C341BDC04F11404C4F1200500FA05F3B9
:1007300020FA04F001FA05F240EA020001F000425A
:1007400021F0004110EBD37021FA04F642EB0601D0
:100750005EEA430E08BF20EAD37070BDC4F10C04FA
:10076000C4F1200500FA04F320FA05F001FA04F2BE
:1007700040EA020001F0004110EBD37041F10001AA
:100780005EEA430E08BF20EAD37070BDC4F12005B5
:1007900000FA05F24EEA020E20FA04F301FA05F21D
:1007A00043EA020321FA04F001F0004121FA04F2C5
:1007B00020EA020000EBD3705EEA430E08BF20EA95
:1007C000D37070BD94F0000F0FD101F000464000CF
:1007D00041EB010111F4801F08BF013CF7D041EA51
:1007E000060195F0000F18BF704703F00046520055
:1007F00043EB030313F4801F08BF013DF7D043EA26
:100800000603704794EA0C0F0CEA135518BF95EADB
:100810000C0F0CD050EA410618BF52EA4306D1D162
:1008200081EA030101F000414FF0000070BD50EA81
:10083000410606BF1046194652EA430619D094EA0B
:100840000C0F02D150EA013613D195EA0C0F05D1F5
:1008500052EA03361CBF104619460AD181EA030149
:1008600001F0004141F0FE4141F470014FF0000001
:1008700070BD41F0FE4141F4780170BD70B54FF09C
:10088000FF0C4CF4E06C1CEA11541DBF1CEA13551C
:1008900094EA0C0F95EA0C0F00F0A7F8A4EB0504FE
:1008A00081EA030E52EA03354FEA013100F08880F5
:1008B0004FEA03334FF0805545EA131343EA1263BE
:1008C0004FEA022245EA111545EA10654FEA002673
:1008D0000EF000419D4208BF964244F1FD0404F52C
:1008E000407402D25B084FEA3202B61A65EB030588
:1008F0005B084FEA32024FF480104FF4002CB6EB45
:10090000020E75EB030E22BFB61A754640EA0C00C4
:100910005B084FEA3202B6EB020E75EB030E22BF04
:10092000B61A754640EA5C005B084FEA3202B6EB45
:10093000020E75EB030E22BFB61A754640EA9C0004
:100940005B084FEA3202B6EB020E75EB030E22BFD4
:10095000B61A754640EADC0055EA060E18D04FEA92
:10096000051545EA16754FEA06164FEAC30343EA32
:1009700052734FEAC2025FEA1C1CC0D111F4801FFF
:100980000BD141EA00014FF000004FF0004CB6E7F8
:1009900011F4801F04BF01430020B4F1FD0C88BF97
:1009A000BCF5E06F3FF6AFAEB5EB030C04BFB6EBA2
:1009B000020C5FEA500C50F1000041EB045170BD95
:1009C0000EF0004E4EEA113114EB5C04C2BFD4EBC2
:1009D0000C0541EA045170BD41F480114FF0000E46
:1009E000013C90E645EA060E8DE60CEA135594EAC2
:1009F0000C0F08BF95EA0C0F3FF43BAF94EA0C0FC5
:100A00000AD150EA01347FF434AF95EA0C0F7FF439
:100A100025AF104619462CE795EA0C0F06D152EA8D
:100A200003353FF4FDAE1046194622E750EA410671
:100A300018BF52EA43067FF4C5AE50EA41047FF482
:100A40000DAF52EA43057FF4EBAE12E74FF0FF3CE7
:100A500006E000BF4FF0010C02E000BF4FF0010CB8
:100A60004DF804CD4FEA410C7FEA6C5C4FEA430C31
:100A700018BF7FEA6C5C1BD001B050EA410C0CBF80
:100A800052EA430C91EA030F02BF90EA020F0020E2
:100A9000704710F1000F91EA030F58BF994208BF49
:100AA00090422CBFD8176FEAE37040F00100704706
:100AB0004FEA410C7FEA6C5C02D150EA013C07D15D
:100AC0004FEA430C7FEA6C5CD6D152EA033CD3D0A8
:100AD0005DF8040B704700BF8446104662468C46A2
:100AE0001946634600E000BF01B5FFF7B7FF0028D5
:100AF00048BF10F1000F01BD4DF808EDFFF7F4FFFE
:100B00000CBF012000205DF808FB00BF4DF808ED88
:100B1000FFF7EAFF34BF012000205DF808FB00BFAB
:100B20004DF808EDFFF7E0FF94BF012000205DF8CD
:100B300008FB00BF4DF808EDFFF7CEFF94BF012082
:100B400000205DF808FB00BF4DF808EDFFF7C4FF7B
:100B500034BF012000205DF808FB00BF4FEA410CC4
:100B60007FEA6C5C02D150EA013C0AD14FEA430CA7
:100B70007FEA6C5C02D152EA033C02D14FF00000E4
:100B800070474FF0010070474FEA410212F5001222
:100B900015D211D56FF47873B3EB625212D94FEAC4
:100BA000C12343F0004343EA505311F0004F23FAAE
:100BB00002F018BF404270474FF00000704750EA03
:100BC000013005D111F0004008BF6FF000407047C0
:100BD0004FF00000704700BF4FEA4102B2F1E0431E
:100BE00024BFB3F5001CDCF1FE5C0DD901F0004C14
:100BF0004FEAC0024CEA5070B2F1004F40EB830064
:100C000008BF20F00100704711F0804F21D113F18F
:100C10003872BCBF01F00040704741F480114FEAC8
:100C20005252C2F11802C2F1200C10FA0CF320FA51
:100C300002F018BF40F001004FEAC1234FEAD3236E
:100C400003FA0CFC40EA0C0023FA02F34FEA4303D8
:100C5000CCE77FEA625307D150EA01331EBF4FF061
:100C6000FE4040F44000704701F0004040F0FE407C
:100C700040F40000704700BF7BB972B90029BEBFC5
:100C800000204FF0004106E008BF00281CBF6FF0B5
:100C900000414FF0FF3000F0BFB9ADF1080C6DE935
:100CA00004CE002909DB002B1ADB00F04DF8DDF83B
:100CB00004E0DDE9022304B07047404261EB4101EA
:100CC000002B1BDB00F040F8DDF804E0DDE9022337
:100CD00004B0404261EB4101524263EB4303704771
:100CE000524263EB430300F02FF8DDF804E0DDE946
:100CF000022304B0404261EB41017047524263EB72
:100D0000430300F021F8DDF804E0DDE9022304B03C
:100D1000524263EB4303704753B94AB9002908BFF5
:100D200000281CBF4FF0FF314FF0FF3000F074B9C6
:100D3000ADF1080C6DE904CE00F006F8DDF804E032
:100D4000DDE9022304B070472DE9F047089D044611
:100D50008E46002B4DD18A42944669D9B2FA82F26E
:100D600052B101FA02F3C2F1200120FA01F10CFAAA
:100D700002FC41EA030E94404FEA1C48210CBEFBE2
:100D8000F8F61FFA8CF708FB16E341EA034306FB6B
:100D900007F199420AD91CEB030306F1FF3080F0FA
:100DA0001F81994240F21C81023E63445B1AA4B247
:100DB000B3FBF8F008FB103344EA034400FB07F7E9
:100DC000A7420AD91CEB040400F1FF3380F00A812A
:100DD000A74240F207816444023840EA0640E41B1F
:100DE00000261DB1D4400023C5E900433146BDE8CB
:100DF000F0878B4209D9002D00F0EF800026C5E96D
:100E0000000130463146BDE8F087B3FA83F6002E84
:100E10004AD18B4202D3824200F2F980841A61EBFC
:100E2000030301209E46002DE0D0C5E9004EDDE71A
:100E300002B9FFDEB2FA82F2002A40F09280A1EB02
:100E40000C014FEA1C471FFA8CFE0126200CB1FB57
:100E5000F7F307FB131140EA01410EFB03F0884250
:100E600008D91CEB010103F1FF3802D2884200F2DD
:100E7000CB804346091AA4B2B1FBF7F007FB10116F
:100E800044EA01440EFB00FEA64508D91CEB04040D
:100E900000F1FF3102D2A64500F2BB800846A4EB68
:100EA0000E0440EA03409CE7C6F12007B34022FA53
:100EB00007FC4CEA030C20FA07F401FA06F31C4382
:100EC000F9404FEA1C4900FA06F3B1FBF9F8200C8F
:100ED0001FFA8CFE09FB181140EA014108FB0EF0D5
:100EE000884202FA06F20BD91CEB010108F1FF3A25
:100EF00080F08880884240F28580A8F10208614431
:100F0000091AA4B2B1FBF9F009FB101144EA01413E
:100F100000FB0EFE8E4508D91CEB010100F1FF34E9
:100F20006CD28E456AD90238614440EA0840A0FB81
:100F30000294A1EB0E01A142C846A64656D353D057
:100F40005DB1B3EB080261EB0E0101FA07F722FA7B
:100F500006F3F1401F43C5E9007100263146BDE8A4
:100F6000F087C2F12003D8400CFA02FC21FA03F307
:100F7000914001434FEA1C471FFA8CFEB3FBF7F088
:100F800007FB10360B0C43EA064300FB0EF69E42AD
:100F900004FA02F408D91CEB030300F1FF382FD246
:100FA0009E422DD9023863449B1B89B2B3FBF7F6EE
:100FB00007FB163341EA034106FB0EF38B4208D9C7
:100FC0001CEB010106F1FF3816D28B4214D9023E08
:100FD0006144C91A46EA004638E72E46284605E726
:100FE0000646E3E61846F8E64B45A9D2B9EB0208F7
:100FF00064EB0C0E0138A3E74646EAE7204694E787
:101000004046D1E7D0467BE7023B614432E73046B9
:1010100009E76444023842E7704700BF80B584B0F6
:1010200000AF78607868FFF7E5F80346BB600023FF
:10103000FB6007E0FB687A68134400221A70FB68C3
:101040000133FB60FA68BB689A42F3DB00BF00BF64
:101050001037BD4680BD000080B596B000AF786007
:10106000396000F039F9234800F002FA4FF47A7041
:1010700001F0B6F900F078F91F4800F0F9F900BF67
:101080001E4800F025FA0346002BF9D000F06CF959
:101090001B4800F0EDF900BF184800F019FA0346AC
:1010A000002BF9D000F060F907F108003B687A687E
:1010B000144903F071FA07F10803184600F0D8F953
:1010C00000BF114800F004FA0346002BF9D000F0ED
:1010D0004BF90E4800F0CCF900BF084800F0F8F9D1
:1010E0000346002BF9D000F03FF900BF5837BD464A
:1010F00080BD00BF807900088C79000894790008D1
:101100009C790008AC790008C8790008D4790008F7
:1011100090B5ADF5417D02AF07F53E73A3F53B7386
:10112000186007F53E73A3F53C73196007F53E732D
:10113000A3F53D731A6007F53E73A3F5FE73002215
:101140001A6004334FF4F8720021184602F0C2FC12
:1011500007F53E73A3F5077300221A6004330022DB
:101160001A605A609A60DA601A615A611A8307F548
:101170003E73A3F5397300221A600433C4220021A0
:10118000184602F0A7FC4B4800F072F900BF4A482D
:1011900000F09EF90346002BF9D007F53E73A3F546
:1011A0003B7307F1FC001A68444903F0F5F900238A
:1011B000C7F8F43226E0D7F8F4325C1CD7F8F432E2
:1011C0009B0007F53E72A2F53D72126813441B683E
:1011D0001846FFF7D1F902460B4607F11400CDE996
:1011E00000232246364903F0D7F907F1140207F12C
:1011F000FC031146184603F0EFF9D7F8F432013337
:10120000C7F8F43207F53E73A3F53C73D7F8F42220
:101210001B689A42CFDB07F1FC031846FEF7EAFF92
:1012200003461A4607F1FC031344264A11889278B4
:1012300019809A7007F1FC031846FEF7DBFF03469E
:10124000C7F8F03207F1DC03D7F8F0221E49184640
:1012500003F0A2F907F1DC03184600F009F900BF1A
:101260001A4800F035F90346002BF9D007F1FC03CA
:10127000184600F0FDF800BF154800F029F90346B4
:10128000002BF9D000BF134800F022F90346002BD1
:10129000F9D007F1FC031846FFF7C0FE07F1DC03A5
:1012A0001846FFF7BBFE00F017F800BF07F53F77C1
:1012B000BD4690BDE4790008947900085C7A000886
:1012C000747A0008807A0008347A0008447A0008AA
:1012D000487A0008547A000880B400AF0D4B0E4ADB
:1012E0001A600E4B0E4A1A600E4B1B685A690D4B62
:1012F0001B6842F001025A610A4B1B68DA68094B0D
:101300001B6842F02002DA6000BFBD465DF8047B36
:10131000704700BFF002002060020020F4020020AD
:10132000A8020020F802002080B485B000AF034678
:101330003960FB713B681B6C013303F03F03FB60BA
:101340003B685A6CFB689A4207D03B681B6C3A6852
:10135000F979D154FA683B681A6400BF1437BD4666
:101360005DF8047B7047000080B400AF054B1A683D
:10137000044B1B68526C1A6400BFBD465DF8047BC9
:10138000704700BFF002002080B483B000AF114B63
:101390001B681A6C0F4B1B685B6C9A4202D14FF0B2
:1013A000FF3310E00B4B1A680A4B1B685B6CD35C75
:1013B000FB71084B1B685B6C5A1C064B1B6802F0E8
:1013C0003F025A64FB7918460C37BD465DF8047B32
:1013D000704700BFF002002080B485B000AF786095
:1013E0007B68002B21DB144B1B681B6C013303F063
:1013F0003F03FB6000BF104B1B685A6CFB689A42AE
:10140000F9D00D4B1A680C4B1B681B6C7968C9B27C
:10141000D154094B1B68FA681A64084B1B68DA68D8
:10142000064B1B6842F08002DA6000BF1437BD46ED
:101430005DF8047B704700BFF4020020F802002032
:1014400080B400AF094B1B681B6C9AB2074B1B683A
:101450005B6C9BB2D31A9BB240339BB203F03F0349
:101460001846BD465DF8047B704700BFF0020020BF
:1014700080B582B000AF786006E07B685A1C7A6065
:101480001B781846FFF7A8FF7B681B78002BF4D168
:1014900000BF00BF0837BD4680BD000080B400AF6C
:1014A0000A4B1B681A6C094B1B685B6C9A4202D191
:1014B0004FF0FF3305E0054B1A68044B1B685B6C6B
:1014C000D35C1846BD465DF8047B7047F0020020EF
:1014D00080B584B000AF78600023FB607868FEF7C9
:1014E00089FE0346BB6000BFFFF7AAFF0346002B3F
:1014F000FAD0FFF7D3FF0146FB687A6813441B78E4
:1015000099421AD01B4B1B685B6C5A1C194B1B6809
:1015100002F03F025A64E6E7FB680133FB60FFF725
:1015200033FFFA68BB689A4201D101231DE000BF76
:10153000FFF786FF0346002BFAD0FFF7AFFF014607
:10154000FB687A6813441B789942E5D0FA68BB6857
:101550009A4202D00023FB60C5E7FA68BB689A4252
:1015600001D1012301E04FF0FF3318461037BD468B
:1015700080BD00BFF002002080B586B000AF78606B
:101580007B681B681B687B617B681B68DB683B6151
:101590007B6903F02003002B13D03B6903F0200389
:1015A000002B0ED07B681B681B687B681B685B6820
:1015B000FB731C4B1A68FB7B11461846FFF7B4FE01
:1015C0002CE07B6903F08003002B27D03B6903F0FC
:1015D0008003002B22D0144B1A6C134B5B6C9A4285
:1015E00008D17B681B68DA687B681B6822F0800280
:1015F000DA6012E00C4B5B6C0B4AD35CBB730A4B9A
:101600005B6C013303F03F03074A53647B681B683C
:101610001B687B681B68BA7B5A6000BF1837BD46E1
:1016200080BD00BFF0020020A802002080B400AFFF
:10163000BFF34F8F00BF064BDB6803F4E062044941
:10164000044B1343CB60BFF34F8F00BF00BFFDE7D8
:1016500000ED00E00400FA0580B400AF474B1B6BBF
:10166000464A43F002031363454B1B68444A23F484
:1016700080331360424B1B68414A43F400331360CC
:101680003F4B1B683E4A23F4802313603C4B1B688E
:101690003B4A43F400231360394B5B68384A43F4F8
:1016A00080735360364B5B68354A43F40073536074
:1016B000334B9B68324A43F480339360304B9B68D2
:1016C0002F4A43F4003393602D4B9B682C4A43F41C
:1016D000802393602A4B9B68294A43F4002393603C
:1016E000274BDB68264A23F48033D360244BDB6826
:1016F000234A23F40033D360214BDB68204A23F4D0
:101700008023D3601E4BDB681D4A23F40023D36083
:101710001B4B5B6A1A4A23F001035362184B5B6A46
:10172000174A23F002035362154B5B6A144A43F0D5
:1017300004035362124B5B6A114A23F0080353629D
:101740000F4B5B6A0E4A23F0100353620C4B5B6A2B
:101750000B4A23F020035362094B5B6A084A43F0AB
:1017600040035362064B5B6A054A23F080035362D1
:1017700000BFBD465DF8047B704700BF00380240E3
:101780000004024080B400AF354B1B6C344A43F474
:1017900000131364324B1B6A314A43F40013136283
:1017A0002F4B1B6A2E4A23F4001313622D4B1B6828
:1017B0002C4A43F4004313602A4B1B68294A23F444
:1017C00000431360274B5B68264A43F032035360A3
:1017D000244BDB69234A23F40043D361214BDB69AB
:1017E000204A23F48043D3611E4BDB691D4A43F03A
:1017F000FA03D3611B4B1B6A1A4A43F0330313628B
:10180000184B1B68174A23F001031360154B9B68A4
:10181000144A23F400439360124B9B68114A43F42B
:10182000004393600F4BDB680E4A03F00103D36063
:101830000C4B1B680B4A23F0C0031360094B1B6859
:10184000084A43F480631360064B1B68054A43F063
:101850000103136000BFBD465DF8047B704700BF05
:10186000003802400054004080B400AF094B1B68B0
:10187000084A43F48073136000BF064B5B6903F0B2
:101880000103002BF9D000BF00BFBD465DF8047B0B
:10189000704700BF0054004080B400AF054B1B6888
:1018A000044A43F40073136000BFBD465DF8047B37
:1018B000704700BF0054004080B483B000AF0346BF
:1018C000FB71084AFB79136100BF064B5B6903F0AB
:1018D0008003002BF9D000BF00BF0C37BD465DF878
:1018E000047B70470054004080B500AFFFF7BCFF99
:1018F000054B5B69044BB8221A61012000F070FDB2
:10190000FFF7CAFF00BF80BD0054004080B582B021
:1019100000AF0346FB71FFF7A7FF0C4B5B69FB7938
:10192000002B01D1B82300E0B923084A136100BF9E
:10193000064B5B6903F00203002BF9D0034B5B6994
:10194000024B9B6900BF0837BD4680BD0054004074
:1019500080B485B000AF78600B46FB704FF6FF7324
:10196000FB6022E07B685A1C7A601B781A46FB6891
:101970005340FB600023FB7214E0FB6803F001039B
:10198000002B09D0FB685B08FB60FB6883F42043F5
:1019900083F00103FB6002E0FB685B08FB60FB7AFD
:1019A0000133FB72FB7A072BE7D9FB785A1EFA70DA
:1019B000002BD7D1FB6818461437BD465DF8047B71
:1019C0007047000080B586B000AFFFF78DFF0020A4
:1019D000FFF79CFF0320FFF76FFF0020FFF76CFF6E
:1019E0000420FFF769FFFFF757FF012000F0F8FC24
:1019F0000120FFF78BFF0023FB7511E000BF354B83
:101A00005B6903F04003002BF9D0324B1A69FB7D70
:101A1000D2B218333B4403F8182CFB7D0133FB751D
:101A2000FB7D072BEAD9FFF737FFFB791B023B61F0
:101A3000BB791A463B6913443B613B460621184675
:101A4000FFF786FF02463B6993423ED13B791B027A
:101A500003F4FE437A791344FB60F868FEF76AFDED
:101A60004FF000021C4BFEF709FF02460B461046E2
:101A70001946FFF7B1F80346184A13603B79DB09B2
:101A8000DBB2012B05D1154BD3ED007AF1EE677A6D
:101A900002E0124BD3ED007A104BC3ED007ABB7815
:101AA0001B02FA781344BB60B868FEF743FD4FF0A1
:101AB0000002094BFEF7E2FE02460B4610461946AD
:101AC000FFF78AF80346064A136000BF1837BD4681
:101AD00080BD00BF00540040000024403C030020B3
:101AE000400300200000000080B584B000AF00F08B
:101AF00005FC00F019F900F0A9F900F07DF9FFF7F5
:101B0000ABFDFFF73FFE74497448FFF7A5FA744B2D
:101B10001B68734A43F48063136000F055FC03466E
:101B200003F56A4360336F4A1360FFF74BFF0020F1
:101B300002F062FD02460B46C7E900233B46184609
:101B400001F0A6FEF860FB689B68BB60BB680B2BCE
:101B500001DC654B00E0654B654A1360654B1B6813
:101B60001846FEF709FD5AA3D3E90023FEF75CFDF2
:101B700002460B46104619464FF000025E4BFEF738
:101B80009DFB02460B4610461946FFF725F8034613
:101B90005A4A1360564B1B6853491846FEF720FB00
:101BA0000346002B25D1554BD3ED007A9FED547A97
:101BB000F4EEC77AF1EE10FA08D5524B4FF000025E
:101BC0001A60514B4FF07E521A6037E04B4BD3ED09
:101BD000007A9FED4B7AF4EEC77AF1EE10FA2DDD24
:101BE000484B4FF07E521A60474B4FF080421A60CC
:101BF00024E0424BD3ED007A9FED447AF4EEC77AAD
:101C0000F1EE10FA08D53F4B4FF000021A603E4B40
:101C10004FF07E521A6011E0384BD3ED007A9FED01
:101C20003B7AF4EEC77AF1EE10FA07DD354B4FF050
:101C30007E521A60344B4FF080421A60344BD3ED21
:101C4000007AB3EE097AF4EEC77AF1EE10FA08D50D
:101C5000304B4FF080421A602F4B4FF000021A6059
:101C600011E02B4BD3ED007A9FED2C7AF4EEC77A7E
:101C7000F1EE10FA07DD274B4FF07E521A60264B2B
:101C80004FF07E521A601B4B1B68254A1360204B95
:101C90001B68234A53601B4B1B68214A93601A4BF5
:101CA0001B681F4AD3601B4B1B681D4A13611A4BEC
:101CB0001B681B4A53611A4A06211A48FFF728FA83
:101CC00043F6992000F08CFB27E700BFAFF30080BC
:101CD000CDCCCCCCCCCCFC3F847A0008907A0008E8
:101CE0000054004000000020A07A0008A47A0008F8
:101CF000600300203C0300200000404064030020FB
:101D000000009642680300206C030020000082421D
:101D100040030020700300207403002000004442B0
:101D200044030020A87A000880B594B000AF07F102
:101D3000200330220021184601F0CCFE07F10C03ED
:101D400000221A605A609A60DA601A610023BB6050
:101D5000274B1B6C264A43F080531364244B1B6CA7
:101D600003F08053BB60BB6800237B60214B1B6882
:101D7000204A43F4404313601E4B1B6803F4404366
:101D80007B607B6801233B624FF4A0237B620223CC
:101D9000BB634FF48003FB6304233B6464237B64D5
:101DA0000223BB640423FB6407F12003184600F000
:101DB000EBFD0346002B01D000F0DAF80F23FB60A7
:101DC00002233B6100237B614FF48053BB610023FE
:101DD000FB6107F10C030321184601F04DF803469F
:101DE000002B01D000F0C4F800BF5037BD4680BDC5
:101DF000003802400070004080B500AF114B124A1D
:101E00001A60104B4FF4E1325A600E4B00229A6078
:101E10000C4B0022DA600B4B00221A61094B0C229A
:101E20005A61084B00229A61064B0022DA6105488C
:101E300001F042FA0346002B01D000F099F800BFF0
:101E400080BD00BFF80200200010014080B58AB0BC
:101E500000AF07F1140300221A605A609A60DA603A
:101E60001A6100233B613E4B1B6B3D4A43F0040368
:101E700013633B4B1B6B03F004033B613B69002383
:101E8000FB60374B1B6B364A43F080031363344BC4
:101E90001B6B03F08003FB60FB680023BB60304BCF
:101EA0001B6B2F4A43F0010313632D4B1B6B03F095
:101EB0000103BB60BB6800237B60294B1B6B284A76
:101EC00043F002031363264B1B6B03F002037B609A
:101ED0007B6800222021234800F03CFD4FF4005392
:101EE0007B614FF40413BB610023FB6107F1140312
:101EF00019461D4800F0AAFB0C237B610223BB613D
:101F00000023FB6103233B6207237B6207F1140379
:101F10001946144800F09AFB20237B610123BB6122
:101F20000023FB6100233B6207F1140319460D48AF
:101F300000F08CFB4FF440737B611223BB610023E4
:101F4000FB6103233B6204237B6207F11403194600
:101F5000064800F07BFB00BF2837BD4680BD00BFB0
:101F60000038024000000240000802400004024025
:101F700080B400AF72B600BFFEE7000080B500AFCE
:101F800000F022FA0346074A1360064B1A68064B14
:101F90001B689A4201D9FFF749FB00F001FA00BF24
:101FA00080BD00BF5C0300200000002080B582B02F
:101FB00000AF00237B60104B5B6C0F4A43F48043FF
:101FC00053640D4B5B6C03F480437B607B680023A0
:101FD0003B60094B1B6C084A43F080531364064B6B
:101FE0001B6C03F080533B603B68072000F0ECFA69
:101FF00000BF0837BD4680BD0038024080B58AB0BA
:1020000000AF786007F1140300221A605A609A60EA
:10201000DA601A617B681B681D4A934234D1002341
:102020003B611C4B5B6C1B4A43F010035364194B20
:102030005B6C03F010033B613B690023FB60154BB5
:102040001B6B144A43F001031363124B1B6B03F029
:102050000103FB60FB684FF4C0637B610223BB613B
:102060000023FB6103233B6207237B6207F1140318
:102070001946094800F0EAFA00220021252000F064
:10208000AEFA252000F0C7FA00BF2837BD4680BD54
:1020900000100140003802400000024080B400AF50
:1020A000FEE780B400AFFEE780B400AFFEE780B487
:1020B00000AFFEE780B400AFFEE780B400AF00BF22
:1020C000BD465DF8047B704780B400AF00BFBD46DD
:1020D0005DF8047B704780B400AF00BFBD465DF87B
:1020E000047B704780B500AF0248FFF745FA00BF98
:1020F00080BD00BFF802002080B400AF0123184665
:10210000BD465DF8047B704780B582B000AF786053
:10211000396001F093FB034616221A604FF0FF333B
:1021200018460837BD4680BD80B582B000AF7860E4
:102130004FF0FF317868FFF7E7FFFEE780B586B024
:1021400000AFF860B9607A6000237B610AE0AFF30A
:1021500000800146BB685A1CBA60CAB21A707B691B
:1021600001337B617A697B689A42F0DB7B681846B1
:102170001837BD4680BD80B586B000AFF860B96045
:102180007A6000237B6109E0BB685A1CBA601B7847
:102190001846AFF300807B6901337B617A697B6805
:1021A0009A42F1DB7B6818461837BD4680BD80B483
:1021B00083B000AF78604FF0FF3318460C37BD4650
:1021C0005DF8047B704780B483B000AF78603960FD
:1021D0003B684FF400525A60002318460C37BD4646
:1021E0005DF8047B704780B483B000AF7860012352
:1021F00018460C37BD465DF8047B704780B485B047
:1022000000AFF860B9607A60002318461437BD4605
:102210005DF8047B7047000080B586B000AF786041
:10222000144A154BD31A7B617B693B61134B1B68C6
:10223000002B02D1114B124A1A60104B1A687B68AE
:1022400013443A699A4207D201F0F8FA03460C2285
:102250001A604FF0FF3309E0084B1B68FB60074B27
:102260001A687B681344054A1360FB6818461837E0
:10227000BD4680BD00000220000400007C03002059
:10228000C003002080B400AF064BD3F88830054A65
:1022900043F47003C2F8883000BFBD465DF8047B8C
:1022A000704700BF00ED00E0DFF834D00D480E4964
:1022B0000E4A002302E0D458C4500433C4188C42A0
:1022C000F9D30B4A0B4C002301E013600432A24205
:1022D000FBD3FFF7D7FF01F0B7FAFFF705FC704714
:1022E000000002200000002044020020E07F0008DF
:1022F00044020020BC030020FEE7000080B500AFD0
:102300000E4B1B680D4A43F4007313600B4B1B68A4
:102310000A4A43F480631360084B1B68074A43F47E
:1023200080731360032000F04FF9002000F008F8DC
:10233000FFF73CFE0023184680BD00BF003C024072
:1023400080B582B000AF7860124B1A68124B1B78D0
:1023500019464FF47A73B3FBF1F3B2FBF3F318466B
:1023600000F067F90346002B01D001230EE07B68E3
:102370000F2B0AD8002279684FF0FF3000F02FF9B8
:10238000064A7B681360002300E0012318460837E3
:10239000BD4680BD08000020100000200C00002079
:1023A00080B400AF064B1B781A46064B1B681344DB
:1023B000044A136000BFBD465DF8047B704700BF50
:1023C000100000208003002080B400AF034B1B6886
:1023D0001846BD465DF8047B704700BF80030020AF
:1023E00080B584B000AF7860FFF7EEFFB8607B681F
:1023F000FB60FB68B3F1FF3F05D00A4B1B781A4620
:10240000FB681344FB6000BFFFF7DEFF0246BB68BA
:10241000D31AFA689A42F7D800BF00BF1037BD46FA
:1024200080BD00BF1000002080B485B000AF786090
:102430007B6803F00703FB600C4BDB68BB60BA688A
:102440004FF6FF031340BB60FB681A02BB681343DF
:1024500043F0BF6343F40033BB60044ABB68D360FE
:1024600000BF1437BD465DF8047B704700ED00E007
:1024700080B400AF044BDB681B0A03F00703184667
:10248000BD465DF8047B704700ED00E080B483B08A
:1024900000AF0346FB7197F90730002B0BDBFB798C
:1024A00003F01F02074997F907305B09012000FA82
:1024B00002F241F8232000BF0C37BD465DF8047BD3
:1024C000704700BF00E100E080B483B000AF034676
:1024D0003960FB7197F90730002B0ADB3B68DAB2F1
:1024E0000C4997F907301201D2B20B4483F800234C
:1024F0000AE03B68DAB20849FB7903F00F03043BBA
:102500001201D2B20B441A7600BF0C37BD465DF8FB
:10251000047B704700E100E000ED00E080B489B08A
:1025200000AFF860B9607A60FB6803F00703FB61F5
:10253000FB69C3F10703042B28BF0423BB61FB69BC
:102540000433062B02D9FB69033B00E000237B61C7
:102550004FF0FF32BB6902FA03F3DA43BB681A405B
:102560007B699A404FF0FF317B6901FA03F3D9434D
:102570007B680B40134318462437BD465DF8047B47
:102580007047000080B582B000AF78607B68013B87
:10259000B3F1807F01D301230FE00A4A7B68013B3E
:1025A00053600F214FF0FF30FFF78EFF054B0022E5
:1025B0009A60044B07221A60002318460837BD466C
:1025C00080BD00BF10E000E080B582B000AF786051
:1025D0007868FFF729FF00BF0837BD4680BD80B58A
:1025E00086B000AF0346B9607A60FB7300237B615D
:1025F000FFF73EFF78617A68B9687869FFF78EFF68
:10260000024697F90F3011461846FFF75DFF00BFED
:102610001837BD4680BD80B582B000AF0346FB7160
:1026200097F907301846FFF731FF00BF0837BD465E
:1026300080BD80B582B000AF78607868FFF7A2FFF8
:10264000034618460837BD4680BD000080B489B0F7
:1026500000AF7860396000237B6100233B61002379
:10266000BB610023FB6159E10122FB6902FA03F31C
:102670007B613B681B687A6913403B613A697B69FF
:102680009A4240F048813B685B6803F00303012BEA
:1026900005D03B685B6803F00303022B30D17B68F5
:1026A0009B68BB61FB695B00032202FA03F3DB4317
:1026B000BA691340BB613B68DA68FB695B0002FAE8
:1026C00003F3BA691343BB617B68BA699A607B689C
:1026D0005B68BB610122FB6902FA03F3DB43BA6961
:1026E0001340BB613B685B681B0903F00102FB6997
:1026F00002FA03F3BA691343BB617B68BA695A6093
:102700003B685B6803F00303032B17D07B68DB682F
:10271000BB61FB695B00032202FA03F3DB43BA6986
:102720001340BB613B689A68FB695B0002FA03F3E4
:10273000BA691343BB617B68BA69DA603B685B685E
:1027400003F00303022B23D1FB69DA087B6808320C
:1027500053F82230BB61FB6903F007039B000F2293
:1027600002FA03F3DB43BA691340BB613B681A69A1
:10277000FB6903F007039B0002FA03F3BA691343F2
:10278000BB61FB69DA087B680832B96943F822103B
:102790007B681B68BB61FB695B00032202FA03F3E1
:1027A000DB43BA691340BB613B685B6803F003021B
:1027B000FB695B0002FA03F3BA691343BB617B68F0
:1027C000BA691A603B685B6803F44033002B00F081
:1027D000A2800023FB60574B5B6C564A43F4804356
:1027E0005364544B5B6C03F48043FB60FB68524AB8
:1027F000FB699B08023352F82330BB61FB6903F08D
:1028000003039B000F2202FA03F3DB43BA69134070
:10281000BB617B68494A934219D07B68484A93421E
:1028200013D07B68474A93420DD07B68464A934257
:1028300007D07B68454A934201D1042308E007236F
:1028400006E0032304E0022302E0012300E000236A
:10285000FA6902F0030292009340BA691343BB6124
:102860003549FB699B080233BA6941F82320384B8C
:102870009B68BB613B69DB43BA691340BB613B6842
:102880005B6803F48013002B03D0BA693B691343E0
:10289000BB612F4ABB6993602D4BDB68BB613B6911
:1028A000DB43BA691340BB613B685B6803F4001308
:1028B000002B03D0BA693B691343BB61244ABB694F
:1028C000D360234B5B68BB613B69DB43BA69134050
:1028D000BB613B685B6803F40033002B03D0BA692B
:1028E0003B691343BB611A4ABB695360184B1B68B1
:1028F000BB613B69DB43BA691340BB613B685B6802
:1029000003F48033002B03D0BA693B691343BB61E6
:102910000F4ABB691360FB690133FB61FB690F2B35
:102920007FF6A2AE00BF00BF2437BD465DF8047B32
:10293000704700BF003802400038014000000240EC
:102940000004024000080240000C02400010024057
:10295000003C014080B483B000AF78600B467B80C0
:1029600013467B707B78002B03D07A887B689A6152
:1029700003E07B881A047B689A6100BF0C37BD4670
:102980005DF8047B7047000080B586B000AF7860CA
:102990007B68002B01D1012367E27B681B6803F091
:1029A0000103002B75D0884B9B6803F00C03042BAC
:1029B0000CD0854B9B6803F00C03082B12D1824B83
:1029C0005B6803F48003B3F5800F0BD17E4B1B686B
:1029D00003F40033002B5BD07B685B68002B57D17E
:1029E000012342E27B685B68B3F5803F06D1764BFA
:1029F0001B68754A43F4803313601DE07B685B6895
:102A0000B3F5A02F0CD1704B1B686F4A43F48023A1
:102A100013606D4B1B686C4A43F4803313600BE00A
:102A2000694B1B68684A23F480331360664B1B684C
:102A3000654A23F4802313607B685B68002B13D006
:102A4000FFF7C2FC386108E0FFF7BEFC02463B69B5
:102A5000D31A642B01D9032307E25B4B1B6803F4F1
:102A60000033002BF0D014E0FFF7AEFC386108E033
:102A7000FFF7AAFC02463B69D31A642B01D9032352
:102A8000F3E1514B1B6803F40033002BF0D100E05D
:102A900000BF7B681B6803F00203002B63D04A4B26
:102AA0009B6803F00C03002B0BD0474B9B6803F093
:102AB0000C03082B1CD1444B5B6803F48003002BF0
:102AC00016D1414B1B6803F00203002B05D07B6835
:102AD000DB68012B01D00123C7E13B4B1B6823F0CE
:102AE000F8027B681B69DB00374913430B603AE04F
:102AF0007B68DB68002B20D0344B01221A60FFF783
:102B000063FC386108E0FFF75FFC02463B69D31ABB
:102B1000022B01D90323A8E12B4B1B6803F002030E
:102B2000002BF0D0284B1B6823F0F8027B681B6950
:102B3000DB00254913430B6015E0244B00221A608B
:102B4000FFF742FC386108E0FFF73EFC02463B69B4
:102B5000D31A022B01D9032387E11B4B1B6803F017
:102B60000203002BF0D17B681B6803F00803002BE5
:102B700036D07B685B69002B16D0154B01221A609A
:102B8000FFF722FC386108E0FFF71EFC02463B69B4
:102B9000D31A022B01D9032367E10B4B5B6F03F0C0
:102BA0000203002BF0D01BE0094B00221A60FFF754
:102BB0000BFC38610EE0FFF707FC02463B69D31AB5
:102BC000022B07D9032350E100380240000047429E
:102BD000800E4742884B5B6F03F00203002BEAD163
:102BE0007B681B6803F00403002B00F09780002330
:102BF000FB75814B1B6C03F08053002B0FD100231E
:102C0000BB607D4B1B6C7C4A43F0805313647A4B52
:102C10001B6C03F08053BB60BB680123FB75774BD3
:102C20001B6803F48073002B18D1744B1B68734A24
:102C300043F480731360FFF7C7FB386108E0FFF7C8
:102C4000C3FB02463B69D31A022B01D903230CE1D3
:102C50006A4B1B6803F48073002BF0D07B689B6881
:102C6000012B06D1644B1B6F634A43F001031367CA
:102C70001CE07B689B68052B0CD15F4B1B6F5E4A89
:102C800043F0040313675C4B1B6F5B4A43F0010383
:102C900013670BE0584B1B6F574A23F00103136770
:102CA000554B1B6F544A23F0040313677B689B68E2
:102CB000002B15D0FFF788FB38610AE0FFF784FB93
:102CC00002463B69D31A41F28832934201D9032369
:102CD000CBE0494B1B6F03F00203002BEED014E056
:102CE000FFF772FB38610AE0FFF76EFB02463B69B3
:102CF000D31A41F28832934201D90323B5E03E4B07
:102D00001B6F03F00203002BEED1FB7D012B05D1DD
:102D1000394B1B6C384A23F0805313647B689B69E2
:102D2000002B00F0A180344B9B6803F00C03082BB0
:102D30005CD07B689B69022B41D1314B00221A6029
:102D4000FFF742FB386108E0FFF73EFB02463B69B4
:102D5000D31A022B01D9032387E0274B1B6803F00A
:102D60000073002BF0D17B68DA697B681B6A1A4319
:102D70007B685B6A9B011A437B689B6A5B08013B2B
:102D80001B041A437B68DB6A1B061B4913434B6019
:102D90001B4B01221A60FFF717FB386108E0FFF7B1
:102DA00013FB02463B69D31A022B01D903235CE0D3
:102DB000114B1B6803F00073002BF0D054E0104B54
:102DC00000221A60FFF700FB386108E0FFF7FCFA09
:102DD00002463B69D31A022B01D9032345E0064B77
:102DE0001B6803F00073002BF0D13DE07B689B690A
:102DF000012B07D1012338E0003802400070004069
:102E0000600047421B4B5B68FB607B689B69012B42
:102E100028D0FB6803F480027B68DB699A4221D1E9
:102E2000FB6803F03F027B681B6A9A421AD1FA687A
:102E300047F6C07313407A68526A9201934211D1E7
:102E4000FB6803F440327B689B6A5B08013B1B0410
:102E50009A4207D1FB6803F070627B68DB6A1B064D
:102E60009A4201D0012300E0002318461837BD46DE
:102E700080BD00BF0038024080B584B000AF7860EC
:102E800039607B68002B01D10123CCE0684B1B68C3
:102E900003F007033A689A420CD9654B3A68D2B2FC
:102EA0001A70634B1B6803F007033A689A4201D01B
:102EB0000123B8E07B681B6803F00203002B20D0DD
:102EC0007B681B6803F00403002B05D0594B9B68FB
:102ED000584A43F4E05393607B681B6803F008038F
:102EE000002B05D0534B9B68524A43F460439360D8
:102EF000504B9B6823F0F0027B689B684D4913435D
:102F00008B607B681B6803F00103002B44D07B6857
:102F10005B68012B07D1474B1B6803F40033002B80
:102F200019D101237FE07B685B68022B03D07B68AB
:102F30005B68032B07D13F4B1B6803F00073002B2A
:102F400009D101236FE03B4B1B6803F00203002B08
:102F500001D1012367E0374B9B6823F003027B68B4
:102F60005B68344913438B60FFF72EFAF8600AE080
:102F7000FFF72AFA0246FB68D31A41F288329342DD
:102F800001D903234FE02B4B9B6803F00C027B68B5
:102F90005B689B009A42EBD1254B1B6803F007034B
:102FA0003A689A420CD2224B3A68D2B21A70204B3D
:102FB0001B6803F007033A689A4201D0012332E00C
:102FC0007B681B6803F00403002B08D0194B9B6837
:102FD00023F4E0527B68DB68164913438B607B68FF
:102FE0001B6803F00803002B09D0124B9B6823F4E5
:102FF00060427B681B69DB000E4913438B6000F065
:1030000021F802460B4B9B681B0903F00F030A498A
:10301000CB5C22FA03F3094A1360094B1B6818467C
:10302000FFF78EF9002318461037BD4680BD00BF5C
:10303000003C024000380240C87A00080800002026
:103040000C0000202DE9B04F94B000AF00237B644A
:103050000023FB6400233B640023BB64794B9B6823
:1030600003F00C03082B0DD0082B00F2E180002B9D
:1030700002D0042B03D0DBE0734BBB64DBE0734B6B
:10308000BB64D8E06F4B5B6803F03F037B646D4B20
:103090005B6803F48003002B63D06A4B5B689B0979
:1030A0000022BB63FA63BB6BC3F308033B630023DB
:1030B0007B63D7E90C4522462B464FF000004FF0CA
:1030C0000001590141EAD261500102460B462146F6
:1030D000511A3961294663EB01037B614FF000020D
:1030E0004FF00003D7E904AB59468B01514643EA40
:1030F000916351468A015146B2EB0108594663EB90
:1031000001094FF000024FF000034FEAC90343EA00
:1031100058734FEAC80290469946234618EB0303BA
:10312000BB602B4649EB0303FB604FF000024FF0FE
:103130000003D7E9024529464B02214643EAD15311
:1031400021464A02104619467B6C0022BB62FA6295
:10315000D7E90A23FDF7E0FD02460B461346FB6460
:1031600058E0384B5B689B09002218461146C0F3B3
:1031700008033B6200237B62D7E9088942464B463D
:103180004FF000004FF00001590141EAD2615001B7
:1031900002460B464146B2EB010A494663EB010B7E
:1031A0004FF000024FF000034FEA8B1343EA9A639B
:1031B0004FEA8A12B2EB0A0463EB0B054FF00002F0
:1031C0004FF00003EB0043EA5473E20014461D463F
:1031D0004346E3183B604B4645EB03037B604FF0EF
:1031E00000024FF00003D7E9004529468B02214633
:1031F00043EA915321468A02104619467B6C00220D
:10320000BB61FA61D7E90623FDF786FD02460B464E
:103210001346FB640B4B5B681B0C03F00303013389
:103220005B003B64FA6C3B6CB2FBF3F3BB6402E003
:10323000054BBB6400BFBB6C18465037BD46BDE8AC
:10324000B08F00BF003802400024F40000127A0062
:1032500080B400AF034B1B681846BD465DF8047B85
:10326000704700BF0800002080B500AFFFF7F0FFF7
:103270000246054B9B689B0A03F007030349CB5C9E
:1032800022FA03F3184680BD00380240D87A0008BD
:1032900080B500AFFFF7DCFF0246054B9B685B0B78
:1032A00003F007030349CB5C22FA03F3184680BD01
:1032B00000380240D87A000880B582B000AF78604C
:1032C0007B68002B01D101233FE07B6893F83D3000
:1032D000DBB2002B06D17B68002283F83C207868A3
:1032E000FEF78CFE7B68242283F83D207B681B68F8
:1032F000DA687B681B6822F40052DA60786800F0B4
:1033000029F87B681B681A697B681B6822F4904265
:103310001A617B681B685A697B681B6822F02A0265
:103320005A617B681B68DA687B681B6842F400524C
:10333000DA607B6800221A647B68202283F83D20D3
:103340007B68202283F83E20002318460837BD46BC
:1033500080BD00002DE9B04FC0B000AFC7F8F40049
:10336000D7F8F4301B681B6923F44050D7F8F430C9
:10337000D968D7F8F4301A6840EA01031361D7F826
:10338000F4309A68D7F8F4301B691A43D7F8F43050
:103390005B691A43D7F8F430DB691343C7F8F83098
:1033A000D7F8F4301B68DB6823F4164121F00C01D8
:1033B000D7F8F4301A68D7F8F8300B43D360D7F851
:1033C000F4301B685B6923F44070D7F8F4309969D6
:1033D000D7F8F4301A6840EA01035361D7F8F430A3
:1033E0001A688F4B9A4205D0D7F8F4301A688D4B83
:1033F0009A4204D1FFF74CFFC7F8FC0003E0FFF747
:1034000033FFC7F8FC00D7F8F430DB69B3F5004FA1
:1034100040F00C81D7F8FC300022C7F8E830C7F83C
:10342000EC20D7E93A4522462B469118B9655B4115
:10343000FB65D7E91623214612EB0108294643EB29
:1034400001094FF000024FF000034FEAC90343EABD
:1034500058734FEAC80290469946234618EB030377
:10346000C7F8E0302B4649EB0303C7F8E430D7F840
:10347000F4305B680022C7F8D830C7F8DC20D7E901
:1034800036120B46DB183B65134642EB03037B65A4
:10349000D7E91423D7E93801FDF73EFC02460B4675
:1034A000614BA3FB02235B091C01D7F8FC3000220F
:1034B000C7F8D030C7F8D420D7E9348942464B4604
:1034C0009118B9645B41FB64D7E91223414612EBC2
:1034D000010A494643EB010B4FF000024FF0000395
:1034E0004FEACB0343EA5A734FEACA0292469B461D
:1034F00043461AEB0303C7F8C8304B464BEB0303B4
:10350000C7F8CC30D7F8F4305B680022C7F8C03079
:10351000C7F8C420D7E930120B46DB183B641346CA
:1035200042EB03037B64D7E91023D7E93201FDF7AF
:10353000F3FB02460B4611463B4BA3FB01235B0901
:10354000642202FB03F3CB1ADB0003F13202364B99
:10355000A3FB02235B095B0003F4F8731C44D7F858
:10356000FC300022C7F8B830C7F8BC20D7E92E8954
:1035700042464B469118B9635B41FB63D7E90E2382
:1035800041465118396349464B417B634FF0000275
:103590004FF00003D7E90CAB5946CB00514643EA44
:1035A00051735146CA0010461946034642469B18BD
:1035B000C7F8B0304B460A4642EB0303C7F8B430B5
:1035C000D7F8F4305B680022C7F8A830C7F8AC2001
:1035D000D7E92A120B46DB18BB62134642EB030302
:1035E000FB62D7E90A23D7E92C01FDF795FB0246D8
:1035F0000B460D4BA3FB02135B09642101FB03F394
:10360000D31ADB003233084AA2FB03235B0903F021
:103610000702D7F8F4301B6822449A6005E100BF26
:1036200000100140001401401F85EB51D7F8FC3019
:103630000022C7F8A030C7F8A420D7E9288942465D
:103640004B46911839625B417B62D7E908234146BA
:103650005418494643EB01054FF000024FF00003B8
:10366000EB0043EA5473E20014461D464346E31858
:10367000C7F898304B4645EB0303C7F89C30D7F8A2
:10368000F4305B680022C7F89030C7F894204FF000
:1036900000024FF00003D7E9244529468B0021465C
:1036A00043EA917321468A00D7E92601FDF734FBEE
:1036B00002460B46604BA3FB02235B091C01D7F8B3
:1036C000FC300022C7F88830C7F88C20D7E922895F
:1036D00042464B469118B9615B41FB61D7E906232D
:1036E00041465118396149464B417B614FF0000218
:1036F0004FF00003D7E904AB5946CB00514643EAEB
:1037000051735146CA0010461946034642469B185B
:10371000C7F880304B460A4642EB0303C7F88430B3
:10372000D7F8F4305B680022BB67FA674FF00002FD
:103730004FF00003D7E91E8949468B00414643EA12
:10374000917341468A00D7E92001FDF7E5FA024668
:103750000B46394BA3FB02135B09642101FB03F306
:10376000D31A1B013233344AA2FB03235B0903F053
:10377000F0031C44D7F8FC3000223B677A67D7E996
:103780001C8942464B469118B9605B41FB60D7E902
:10379000022341465118396049464B417B604FF046
:1037A00000024FF00003D7E900AB5946CB00514669
:1037B00043EA51735146CA00104619460346424631
:1037C0009B18BB664B460A4642EB0303FB66D7F8E1
:1037D000F4305B6800223B667A664FF000024FF0DF
:1037E0000003D7E9188949468B00414643EA9173A3
:1037F00041468A00D7E91A01FDF78EFA02460B46C8
:103800000D4BA3FB02135B09642101FB03F3D31AE5
:103810001B013233084AA2FB03235B0903F00F02AA
:10382000D7F8F4301B6822449A6000BF07F5807710
:10383000BD46BDE8B08F00BF1F85EB51014B186836
:10384000704700BF1400002070B50D4D0D4C641B77
:10385000A4100026A64209D10B4D0C4C04F084F8AC
:10386000641BA4100026A64205D170BD55F8043B88
:1038700098470136EEE755F8043B98470136F2E7E2
:10388000D87F0008D87F0008D87F0008DC7F0008B8
:1038900038B50B4B1D68EB6B044653B9242000F080
:1038A00009F90246E86320B9064B0748322101F0C6
:1038B000F9F8E96B2046BDE8384000F007B800BFD2
:1038C00014000020E47A0008FB7A00082DE9F34197
:1038D0008046019101F0E6FF01990546404601F05E
:1038E000E5FF43699907044603F26C7705D164222A
:1038F00097FBF2F302FB137373BB4FF4C87397FB90
:10390000F3F603FB1676B6FA86F35B09674E3022B0
:1039100002FB036600F034FF00F03EFF644B1B68BF
:103920004BB36B68BB4219D12F68D8E90023D5E9A6
:103930000801DFB9824273EB010123DAD5E91201F4
:10394000824273EB0107B4BF0127002782428B41FB
:10395000276219DBAB6A18E00123D7E7384600F08D
:1039600065FE0028E0D14FF0FF3304E0824273EBA4
:10397000010102DA00232362ECE7D5E91201824259
:103980008B41F7DA012323622B6D61684FF461628A
:103990003C2093FBF2F502FB153393FBF0F200FBA6
:1039A00012302368891AA26861601B1A521B3B2BD4
:1039B0002360A26035DD013161603C3B23606368B8
:1039C0003B2B34DD0132A2603C3B6360A368172BC4
:1039D00033DDE2690132E261A2690132062AC8BF21
:1039E0000022A261E268183B0132A3602369E26011
:1039F00056F823108A420EDD0B2BA2EB0102E26087
:103A000003F1010209BF636922610022013302BF91
:103A100022616361E26100F0B9FE204602B0BDE8B8
:103A2000F081002BCBDA013961603C33C6E7002B13
:103A3000CCDA013AA2603C33C7E7002BEBDAE2694B
:103A4000013AE261A269013A48BF0622A261E26836
:103A50001833013AE260A360002ADCD12369013BFC
:103A600005D42361236956F82330E360D3E70B23A1
:103A7000236163695A1E03F26B7362619A0705D171
:103A8000642193FBF1F201FB123262B94FF4C87268
:103A900093FBF2F102FB1133B3FA83F35B0903F5F5
:103AA000B673E361DEE70123F9E700BF587B000846
:103AB000A8030020024B0146186800F07FB800BF41
:103AC00014000020024B0146186800F00BB800BF3C
:103AD0001400002002440346934200D1704703F8CB
:103AE000011BF9E737B5002944D051F8043C019097
:103AF000002BA1F10404B8BFE41801F09BFF1E4A9B
:103B00000198136833B96360146003B0BDE83040B6
:103B100001F096BFA34208D9256861198B4201BF05
:103B200019685B6849192160EDE71A465B680BB1BB
:103B3000A342FAD911685518A5420BD12468214433
:103B40005418A3421160E0D11C685B6853602144A3
:103B50001160DAE702D90C230360D6E72568611902
:103B60008B4204BF19685B68636004BF4919216018
:103B70005460CAE703B030BD8403002070B50E4E18
:103B80000C463168054611B900F0F6FC306021465C
:103B9000284600F0F1FC431C0AD0C41C24F00304A6
:103BA000A04207D0211A284600F0E6FC013001D1DE
:103BB0004FF0FF34204670BD880300202DE9F0410E
:103BC000CD1C25F0030508350C2D38BF0C25002D24
:103BD000074601DBA94205D90C233B60002630468D
:103BE000BDE8F0812E4E01F025FF33681C4634BB42
:103BF00029463846FFF7C2FF431C04464DD13468BE
:103C00002646002E40D123683146384604EB03088F
:103C100000F0B2FC80453AD1216803356D1A25F0D9
:103C2000030508350C2D38BF0C2529463846FFF70B
:103C3000A5FF01302BD023682B4423600EE02268BF
:103C4000521B1ED40B2A16D96119A342256018BF36
:103C50005960636808BF316062514B60384604F1B7
:103C60000B0601F0EDFE26F00706231DF21AB6D072
:103C70009B1BA350B3E76268A3420CBF32605A603B
:103C8000ECE723466468B2E734467668B9E70C236C
:103C90003B60384601F0D4FEA1E72560DEE700BFB7
:103CA000840300202DE9FF4755EC104B002D0E46F4
:103CB00019462B46BBBF05F100431D4600232D23AB
:103CC0000B700D9BDDF830A0914623F02008BCBF9F
:103CD00022461446B8F1460F05D0B8F1450F00D181
:103CE0000136022100E0032103AB019302AB0093F4
:103CF00045EC104B5346324600F07EFFB8F1470FBB
:103D0000074602D119F0010F22D0B8F1460F07EB98
:103D1000060910D13B78302B0AD10022002320461F
:103D20002946FCF7E9FE18B9C6F10106CAF8006099
:103D3000DAF8003099440022002320462946FCF797
:103D4000DBFE08B1CDF80C903022039B4B4507D326
:103D5000039B0E9ADB1B3846136004B0BDE8F08766
:103D6000591C03911A70F0E7F7B503460029B8BF54
:103D7000494203F8022BB4BF2D222B22092942709D
:103D80002ADD0DF10704A4460A27A6460A4691FB40
:103D9000F7F607FB16153035632A04F1FF340EF8E9
:103DA000015C3146F1DC3031AEF1020504F8011C52
:103DB000441C294661450AD30DF10902A2EB0E020B
:103DC000654588BF00221344181A03B0F0BD11F8EE
:103DD000012B04F8012FEDE7302330318370C170DF
:103DE000031DF1E72DE9F04F2DED028B8DB00C4650
:103DF000DDF8608016461F46054601F003FED0F848
:103E000000A05046FCF7F6F900230A9323680593B7
:103E1000D8F8003094F818B0073323F0070303F103
:103E20000802C8F80020D3E90023C4E91223D4E92A
:103E3000128929F000430793CDF8188008EE100A84
:103E40009F4BDDE906014FF0FF32FCF787FE88BB90
:103E5000DDE906019A4B4FF0FF32FCF761FE48BBEB
:103E60000022002340464946FCF750FE10B12D23A6
:103E700084F84330934B9448BBF1470F94BF984666
:103E8000804603232361059B23F0040222604FF048
:103E90000009009733460BAA2146284600F0D8F9BE
:103EA000013040F090804FF0FF300DB0BDEC028B40
:103EB000BDE8F08F42464B4640464946FCF74EFE71
:103EC00040B14B46002BBCBF2D2384F843307F48C4
:103ED0007F4BD1E763680BF0DF0206925A1C3FD19B
:103EE00006236360059B616843F4806200230393AB
:103EF0000AABCDE901B309AB49EC108B009322600A
:103F00000DF123032846FFF7CDFE069B0999472BA9
:103F1000804608D1C81C02DB6368994241DDABF1E1
:103F2000020B5FFA8BFBBBF1650F20D801395A46B3
:103F300004F150000991FFF717FF0A9A1318012A9C
:103F40008146236102DC2268D20701D50133236157
:103F50009DF82330002B9CD02D2384F8433098E724
:103F6000069A472ABED1002BBCD10123B9E7BBF189
:103F7000660F18D1002963680BDD216113B922682F
:103F8000D00702D501330B442361A1654FF000092E
:103F9000DEE713B92268D20701D50233F4E7012323
:103FA000F2E74FF0670B0A9B994205DB236821611A
:103FB000D807EAD54B1CE7E70029D4BFC1F10202BC
:103FC00001221344E0E723685A0507D423694246D7
:103FD00031462846B84701302CD164E7BBF1650F64
:103FE00040F2E080D4E9120100220023FCF784FDB6
:103FF000002834D0374A012331462846B8470130DB
:104000003FF451AFDDE909239A4202DB2368D80768
:1040100010D518EE103A524631462846B8470130BE
:104020003FF441AF4FF0000804F11A090A9B013B2D
:10403000434509DC23689B0700F10581E0680B9B81
:104040009842B8BF184630E701234A463146284611
:10405000B84701303FF427AF08F10108E6E7099BB4
:10406000002B39DC1B4A012331462846B847013072
:104070003FF419AFDDE90923134302D12368D907BF
:10408000D8D518EE103A524631462846B847013086
:104090003FF409AF4FF0000904F11A0A099B5B4293
:1040A0004B4501DC0A9B92E70123524631462846E4
:1040B000B84701303FF4F7AE09F10109EEE700BF60
:1040C000FFFFEF7FB87B0008BC7B0008C47B0008C3
:1040D000C07B0008B67F00080A9AA36D9A42A8BF69
:1040E0001A46002A914637DC4FF0000B29EAE9799D
:1040F00004F11A02A36D0593A3EB09035B4533DCBE
:10410000DDE909239A423BDB2368DA0738D40A9BAE
:10411000059A09999A1AA3EB01099145A8BF9146FE
:10412000B9F1000F35DC4FF0000829EAE97904F114
:104130001A0ADDE909239B1AA3EB090343457FF71C
:1041400079AF0123524631462846B84701303FF443
:10415000AAAE08F10108ECE713463146424628466C
:10416000B8470130C0D19EE601233146284605926A
:10417000B84701303FF497AE059A0BF1010BB9E750
:1041800018EE103A524631462846B8470130BED1A3
:1041900089E6059A4B46424431462846B8470130E5
:1041A000C1D180E60A9A012A01DCDB0738D5012358
:1041B000424631462846B84701303FF474AE18EE07
:1041C000103A524631462846B84701303FF46BAEAC
:1041D000D4E9120100220023FCF78EFCD8B90A9B17
:1041E00008F10102013B31462846B84701300ED1A3
:1041F00059E60123524631462846B84701303FF47C
:1042000052AE08F101080A9B013B4345F1DC4B46E5
:1042100004F15002DCE64FF0000804F11A0AF2E75C
:1042200001234246DFE701234A4631462846B84784
:1042300001303FF438AE08F10108E3680B995B1ACE
:104240004345F0DCFAE64FF0000804F11909F4E701
:104250002DE9F047164699468A680B69DDF82080FB
:104260009342B8BF1346336091F8432007460C468B
:104270000AB1013333602368990642BF33680233C1
:104280003360256815F0060506D104F1190AE368C4
:1042900032689B1AAB4226DC94F84320131E226836
:1042A00018BF012392062BD404F143024946384635
:1042B000C04701301ED02368E568326803F006036A
:1042C000042B08BFAD1AA36822690CBF25EAE57567
:1042D00000259342C4BF9B1AED1800261A34B5423C
:1042E0001AD1002008E00123524649463846C0470B
:1042F000013003D14FF0FF30BDE8F0870135C6E74C
:10430000E1185A1C302081F84300224494F84510EB
:1043100082F843100233C7E7012322464946384654
:10432000C0470130E6D00136D9E700002DE9FF474C
:104330000F7E0C9D782F914680460C469A4601F1DF
:10434000430207D8622F0AD8002F00F0D880582FD8
:1043500000F0A38004F1420584F842703AE0A7F12E
:104360006303152BF6D801A151F823F0C5430008CB
:10437000D943000855430008554300085543000839
:1043800055430008D9430008554300085543000829
:104390005543000855430008E54400080944000857
:1043A000C744000855430008554300080745000866
:1043B00055430008094400085543000855430008C8
:1043C000CF4400082B681A1D1B682A6004F14205BF
:1043D00084F842300123A3E020682968060601F131
:1043E00004030AD50E682B60002E03DA2D237642D3
:1043F00084F843305E480A2319E00E682B6010F001
:10440000400F18BF36B2EFE72B682068191D2960EE
:10441000010601D51E6802E04606FBD51E885448F9
:104420006F2F0CBF08230A23002184F8431065680E
:10443000A560002DA2BF216821F0040121600EB902
:10444000002D4DD01546B6FBF3F103FB1167C75D98
:1044500005F8017D3746BB420E46F4D9082B0BD137
:104460002368DE0708D5236961689942DEBF3023DF
:1044700005F8013C05F1FF35521B2261CDF800A083
:104480004B4603AA21464046FFF7E2FE01304CD1DD
:104490004FF0FF3004B0BDE8F087354881F8457033
:1044A0002968236851F8046B29601D0614D5DF07BD
:1044B00044BF43F0200323601EB9236823F0200388
:1044C00023601023B0E7236843F0200323607823A0
:1044D000284884F84530E3E7590648BFB6B2E6E716
:1044E0001546BBE72B6826686169181D28603506EC
:1044F0001B6801D5196002E07006FBD51980002306
:1045000023611546BAE72B681A1D2A601D68626888
:1045100000212846FBF77CFE08B1401B6060636801
:104520002361002384F84330A8E723692A464946DB
:104530004046D0470130ABD023689B0713D4E068D6
:10454000039B9842B8BF1846A4E701233246494668
:104550004046D04701309BD00135E36803995B1A90
:10456000AB42F2DCEBE7002504F11906F5E700BFEA
:10457000C87B0008D97B000838B5064D00230446E7
:1045800008462B60FDF748FE431C02D12B6803B19F
:10459000236038BDB80300200EB400B59CB01DAB3D
:1045A000029006906FF00041094807910491094973
:1045B00053F8042B05910068019302A901F03CFE19
:1045C000029B00221A701CB05DF804EB03B0704728
:1045D000140000200802FFFF10B5024614781346AD
:1045E0000132002CFAD1013B11F8012B03F8012F05
:1045F000002AF9D110BD00001FB50B4B00226946FF
:104600000446186801F03CF90028BEBF4FF0FF32A5
:104610004FF0FF33CDE90023DDE900010CB1C4E91F
:10462000000104B010BD00BF140000202DE9F74FB9
:10463000054601F037F940F2B1739D4240F399808D
:104640006FF4F662AC18A5F2B27340F26D12A410CA
:1046500002FB03446FF06302A5F26D7393FBF2F368
:104660001C444FF4C8736FF4C86195FBF3FC03FB63
:104670001C5C6A18BCFA8CF6B2FBF3F205F003037B
:1046800014446422456095FBF2F7760902FB175744
:10469000014600F1500B00934FF0070A0D7A4B6969
:1046A0004A2D2DD1009A04EB030E02B917B9BCF1C3
:1046B000000F23D13B2BD4BF002301237344013BC4
:1046C0008D692D4A4FEAE57EC3FB025E8B6AED18C9
:1046D0004EEBE373C1E9085328318B45DED1D0E9B5
:1046E0001213D0E908428C4272EB0303B4BF0123DA
:1046F00000230360012003B0BDE8F08F0023DDE755
:10470000442D01D12344DBE7009A62BB002F0CBF8C
:1047100035460125CA680192184A4FF0300909FB55
:104720000525A6464FF00008043D019A08F101084E
:10473000424555F8289018DC0EF1040595FBFAF86F
:10474000C8EBC808A5EB0808B3EB08080B6903F130
:10475000FF3348BF08F10708C3EBC30343444B458D
:1047600005DA7344ACE73546D4E7CE44DDE7073BD2
:10477000F5E70020BFE700BF80510100587B00082B
:10478000014801F044B900BFB4030020014801F022
:1047900040B900BFB4030020014B186800F002B814
:1047A000140000202DE9F04F8DB0074601F07AF893
:1047B000B049B14E0546384601F05AF8044670B982
:1047C000AE4BAF4A1860AF4B1860AF4B3068C3E9CF
:1047D0000022FFF777F934600DB0BDE8F08F316843
:1047E000002962D13068FFF76DF92046FBF702FD22
:1047F000411C3846FFF7E2F9306000285AD123788F
:10480000A24AA3493A2B08BF01340AAE33462046D8
:1048100001F06CFF0028DFDD0A9BE718E35C2D2B1D
:104820004CD101374FF0FF380DF1200A0DF11E0B6E
:104830000024CDE9016A97490396CDF800B03346CC
:1048400007AA3846ADF81E40ADF8204001F04EFFF3
:10485000A042C1DDBDF81E20BDF82030DFF8409237
:104860003C2101FB0233BDF81C204FF4616101FBC8
:10487000023308FB03F3DFF81082AB62834BC8F806
:1048800000300A9B82491F444A463346384601F0AD
:104890002DFFA04218DCD8F80030C8F80430774B60
:1048A000AA6A1A60774B1C6096E7FBF799FC002810
:1048B00098D191E7214601F08AFFA0E72B2B08BF92
:1048C00001374FF00108AFE70A9BC8F80490FC18C5
:1048D000FB5C2D2B40F08B8001344FF0FF37002321
:1048E000ADF81C30ADF81E30ADF820300A93CDE99C
:1048F00002A6CDE900B66749334607AA204601F073
:10490000F5FE002878DCAB6AA3F561632B650A9B92
:104910002F461C444FF0000923782C2B08BF01348C
:1049200094F80080B8F14D0F78D10DF12603CDE950
:10493000016309AB00935849039633460DF12202F7
:10494000204601F0D3FE03287FF446AFBDF82210C5
:104950004B1E0B2B3FF640AFBDF82420531E042BFB
:104960003FF63AAFBDF82630062B3FF635AFC7E924
:10497000031287F808807B610A9B04EB030802237B
:10498000ADF81C300023ADF81E30ADF820300A938E
:1049900098F800302F2B09D1CDE902A6CDE900B659
:1049A0003E49334607AA404601F0A0FEBDF81E204E
:1049B000BDF820303C2101FB0233BDF81C204FF430
:1049C000616101FB0233BB610A9C28374444B9F1A1
:1049D000000F20D06868FFF729FE284BAA6A1A60EA
:1049E0002B6D9B1A274A18BF01231360F4E62B2B6B
:1049F00008BF0134012772E7BDF81E20BDF8203042
:104A00003C2101FB0233BDF81C204FF4616101FB26
:104A100002337B437AE74FF001097DE7B8F14A0F93
:104A200006BF0134434644230A220BA920460593BE
:104A300001F05EFFDDF82C80059BADF82600A04557
:104A400014D14D23B9F1000F07D12B72032102239A
:104A5000C5E90313C5F8149091E785F830300B22AF
:104A60000123C5E90D230023EB6388E780B23B7285
:104A7000786184E7EA7B0008A4030020AC030020EF
:104A8000ED7B0008A8030020780000209703002099
:104A9000F17B0008147C0008007C0008137C0008EF
:104AA0008C0300201FB514461A46094B1B680546A7
:104AB000D8684CB1074B0091CDE9013406492B462B
:104AC00000F088FE01F0F0FF044B1C46F3E700BF46
:104AD00014000020267C0008337C0008617C00085C
:104AE0002DE9F74F03690C69A3420746C0F28180A4
:104AF000013C01F1140800F1140505EB8403019356
:104B000058F8243055F8242001339A424FEA840B98
:104B100008EB8409B2FBF3F631D34FF0000E4046A8
:104B2000AC46F24650F8042B93B206FB03E34FEA7F
:104B3000134E9BB2AAEB0303DCF800A0120C13FA8D
:104B40008AF306FB02E20093009B4FEA124E92B2F8
:104B5000C2EB1A4202EB2342BDF80030814543EA22
:104B600002434CF8043B4FEA224ADBD255F80B30A3
:104B70002BB9019B043B9D421A462ED33C6138461B
:104B800001F0E6F9002824DB013628464FF0000C3E
:104B900058F8042BD0F800E093B2ACEB0303120CEE
:104BA00013FA8EF3C2EB1E4202EB23429BB243EA9E
:104BB0000243C14540F8043B4FEA224CE8D255F885
:104BC000242005EB840322B9043B9D421A460AD3F4
:104BD0003C61304603B0BDE8F08F1268043B002A08
:104BE000CCD1013CC7E71268043B002AF0D1013C5C
:104BF000EBE70020EEE700002DE9F04F2DED048BF0
:104C000057EC106B93B0456ADDF88080069110EE8A
:104C100010AA044609920C93BB4675B91020FEF702
:104C200049FF0246606220B9A74BEA21A748FFF777
:104C300039FFC0E901550560C560636A196851B163
:104C40005A684A60012393408B60204600F03EFF83
:104C5000636A00221A603B1EAABF002323F0004BA8
:104C6000C8F800309A4BBCBF0122C8F8002033EAD4
:104C70000B031BD10C9A42F20F731360CBF3130397
:104C8000334300F09285219B63B9924B22E0924B13
:104C900001930833219A1360019813B0BDEC048B83
:104CA000BDE8F08F8B4B01930333F3E70022002321
:104CB00050465946FBF720FF4BEC19AB804658B1E4
:104CC0000C9A01231360219B002B00F06B85834815
:104CD0001860431E0193DFE74BEC10AB10AA11A93B
:104CE000204601F0DBF9CBF30A5508EE100A002D3F
:104CF00000F0848019EE903AC3F3130343F07F571A
:104D0000564647F44017A5F2FF35CDF83880744B6E
:104D1000002230463946FBF7CFFA65A3D3E90023DA
:104D2000FBF782FC64A3D3E90023FBF7C7FA06462E
:104D300028460F46FBF70EFC61A3D3E90023FBF7DF
:104D400073FC02460B4630463946FBF7B7FA064677
:104D50000F46FBF719FF002200900023304639462A
:104D6000FBF7D4FE50B10098FBF7F4FB32463B460C
:104D7000FBF7C2FE10B9009B013B0093009B162B72
:104D80005AD8009A574B03EBC203D3E9002351ECE6
:104D9000190BFBF7BBFE002850D0009B013B009392
:104DA00000230B93109B5D1B6B1E059345BFC5F144
:104DB00001030493002300234CBF05930493009B3D
:104DC000002B3DDB059B009A0A92134405930023B8
:104DD0000793069B092B00F28980052BC4BF043B77
:104DE0000693069BA3F10203CCBF00250125032BEC
:104DF00000F28780DFE803F02D3A3859DDE91053DF
:104E00001D4405F23243202BC1BFC3F1400305F21C
:104E100012400BFA03F326FA00F0DABFC3F12003C5
:104E200006FA03F01843FBF785FB01230646A1F1C0
:104E3000F877013D0E936AE70123B2E70B90B1E7E3
:104E4000049B009A9B1A04935342079300230A93EE
:104E5000BFE700230893099B002B55DC0123CDE914
:104E600002331A4609920CE00123F3E70023099A62
:104E70000893009B134402930133012B0393B8BFA3
:104E80000123606A00224260042202F114069E425D
:104E900041683DD9204600F0D9FD019000283BD162
:104EA000114B02464FF4D571C0E60123DFE700BF86
:104EB00061436F63A787D23FB3C8608B288AC63F20
:104EC000FB799F501344D33FE47A00086F7C0008BD
:104ED0000000F07F6B7C0008627C0008B77F000850
:104EE0000000F83F607D0008CA7C0008012500230F
:104EF000069308954FF0FF33CDE9023300221223C9
:104F0000B0E701230893F5E7099BCDE90233B8E741
:104F1000013141605200B8E7636A019A1A60039B4D
:104F20000E2B00F29D80002D00F09A80009B002B3C
:104F300032DDB74A03F00F0302EBC303D3E9008964
:104F4000009BD8054FEA231716D5B24B51EC190B2D
:104F5000D3E90823FBF792FC07F00F0782468B4644
:104F60000325AC4E57B942464B4650465946FBF7CF
:104F700085FC82468B4628E00225F2E7F90708D532
:104F800040464946D6E90023FBF74EFB01358046F3
:104F900089467F100836E5E700F09B80009B9D4F17
:104FA0005E429B4B06F00F0203EBC203D3E90023E2
:104FB00051EC190BFBF738FB361182468B46002368
:104FC0000225002E7AD1002BD3D10B9B002B00F0B1
:104FD0008280914B002250465946FBF797FD0028EE
:104FE00079D0039B002B76D0029B002B36DD009BF3
:104FF000504659465F1E0022884BFBF715FB029E68
:1050000082468B4601352846FBF7A4FA52465B469A
:10501000FBF70AFB824B0022FBF750F9D046D9463A
:105020008246A1F1507B002E58D17E4B0022404693
:105030004946FBF741F952465B4680468946FBF7F5
:1050400083FD002840F0958252460BF10043404614
:105050004946FBF75BFD002840F089825BEC19AB09
:10506000119B002BC0F24881009A0E2A00F3448164
:10507000674B03EBC203D3E90089099B002B80F245
:10508000D580039B002B00F3D18040F06F82654BED
:10509000002240464946FBF7C7FA52465B46FBF7FB
:1050A00049FD039E3746002840F04582019D31238B
:1050B00005F8013B009B0133009340E2F20705D560
:1050C000D7E90023FBF7B0FA013501237610083742
:1050D00077E7022579E7009F039E94E701994C4BFF
:1050E00031440D91089903EBC60353E902230029CB
:1050F00043D04D490020FBF7C1FB52465B46FBF70E
:10510000DBF8019D82468B4649464046FBF73CFD55
:105110000646FBF71FFA02460B4640464946FBF798
:10512000CBF8303605F8016B52465B46804689461F
:10513000FBF7ECFC002863D142464B463649002081
:10514000FBF7BAF852465B46FBF7E0FC002840F05C
:10515000B5800D9B9D4281D0304B00225046594670
:10516000FBF762FA2D4B82468B46404649460022A9
:10517000FBF75AFA80468946C6E750465946FBF780
:1051800053FA0D9B019D0F9382468B46494640463C
:10519000FBF7FAFC0646FBF7DDF9303602460B4614
:1051A00040464946FBF788F805F8016B0D9B9D4288
:1051B000804689464FF0000224D11B4B5046594689
:1051C000FBF77CF802460B4640464946FBF7BCFC21
:1051D000002873D152465B4613490020FBF76CF858
:1051E00002460B4640464946FBF790FC00283FF438
:1051F00035AF0F9D6B1E0F9315F8013C302BF8D087
:10520000009749E0054BFBF70FFA80468946BDE75A
:10521000607D0008387D00080000F03F0000244059
:1052200000001C40000014400000E03F019D564675
:105230005F4642464B4630463946FBF71FFBFBF7BD
:10524000A3FC8246FBF786F942464B46FBF7ECF996
:1052500002460B46304639460AF13006FBF72CF879
:1052600005F8016B019E039FAE1BB74202460B4639
:1052700035D1FBF723F842464B4606460F46FBF76F
:1052800063FCD0B942464B4630463946FBF734FC06
:1052900010B11AF0010F10D1204618EE101A00F0CC
:1052A00015FC002300982B700C9B01301860219B8B
:1052B000002B3FF4F1AC1D60EEE4009F2B461D4631
:1052C00013F8012D392A06D1019A9A42F7D1019992
:1052D000302201370A701A7801321A7090E7A64B13
:1052E0000022FBF7A1F90022002306460F46FBF738
:1052F00003FC00289DD0CFE7089A002A00F0D78051
:10530000069A012A00F3BA800E9A002A00F0B280B1
:1053100003F23343079E049D049A1A440492059AAB
:1053200001211A442046059200F088FC0746002D12
:105330000CDD059B002B09DDAB42049AA8BF2B4670
:10534000D21A0492059AED1AD31A0593079B1BB340
:10535000089B002B00F0AF80002E13DD394632464B
:10536000204600F02BFD18EE102A01460746204685
:1053700000F07AFC18EE101A8046204600F0A6FBDA
:1053800008EE108A079B9A1B06D018EE101A2046CA
:1053900000F014FD08EE100A0121204600F04EFC3A
:1053A0000A9B002B064640F388801A460146204699
:1053B00000F004FD069B012B064640F381804FF070
:1053C0000008336906EB8303186900F0E7FBC0F1BE
:1053D0002000059B184410F01F0000F09280C0F1DF
:1053E0002003042B40F38A80C0F11C00049B03447B
:1053F0000493059B034405440593049B002B07DDA0
:1054000018EE101A1A46204600F032FD08EE100A77
:10541000059B002B05DD31461A46204600F028FD8D
:1054200006460B9B002B6ED018EE100A314600F09A
:105430008FFD002867DA009B013B18EE101A0093DD
:105440000A220023204600F063FB089B08EE100AA6
:10545000002B00F0B181002339460A22204600F0DB
:1054600057FB029B002B074600F38E80069B022B06
:1054700051DC89E0109BC3F136034BE7039B5E1EB2
:10548000079BB342BFBF079B0796F21A0A9BB6BFA2
:105490009B189E1B0A93039BB8BF0026002BB7BF27
:1054A000DDE90323DDE903359D1A002334E7079E78
:1054B000049D089F3BE7079A67E7069B012B18DCD2
:1054C000BAF1000F15D1CBF3130393B92BF00043BE
:1054D0001B0D1B0583B1049B01330493059B013312
:1054E00005934FF001080A9B002B7FF46AAF01205F
:1054F0006FE74FF00008F6E79846F4E73FF47DAF1A
:1055000018461C3072E7039B002B37DC069B022BEE
:1055100034DD039B0293029B6BB931460522204682
:1055200000F0F6FA0146064618EE100A00F010FDEB
:1055300000283FF7BBAD099B019DDB4300934FF073
:1055400000083146204600F0C1FA002F3FF4A4AE17
:10555000B8F1000F05D0B84503D04146204600F011
:10556000B5FA3946204600F0B1FA95E600263746EE
:10557000E1E70097374699E500002440089B002B9F
:1055800000F0CA80039B0293002D05DD39462A46B0
:10559000204600F06DFC0746B8F1000F5BD079683B
:1055A000204600F053FA054628B9874B024640F2E0
:1055B000EA21FFF73BBB3A690232920007F10C0186
:1055C0000C3000F028FA01222946204600F050FC59
:1055D000019B03F10109DDE90123134405930AF05E
:1055E0000103B84604930746314618EE100AFFF748
:1055F00077FA4146029000F1300A18EE100A00F0E6
:10560000A7FC3A4603903146204600F0BDFCC26834
:1056100009F1FF3B054602BB014618EE100A00F0F7
:1056200097FC024629462046079200F04FFADDE932
:10563000063243EA0201049B0B434D460FD1BAF1F7
:10564000390F2AD0039B002B02DD029B03F1310AA4
:105650008BF800A075E73846BAE70122E2E7039B22
:10566000002B04DB06990B4304990B4322D1002A3B
:10567000EEDD18EE101A0122204600F0F9FB31464B
:1056800008EE100A00F064FC002803DCE0D11AF0F8
:10569000010FDDD0BAF1390FD7D139238BF80030A3
:1056A0002B461D46013B15F8012C392A71D00132D9
:1056B0001A7046E7002A07DDBAF1390FEDD00AF17A
:1056C00001038BF800303CE7059B09F801AC9945D4
:1056D00047D018EE101A00230A22204600F018FACC
:1056E000B84508EE100A4FF000034FF00A02414699
:1056F000204606D100F00CFA8046074609F1010960
:1057000072E700F005FA3946804600230A22204657
:1057100000F0FEF90746F1E7039B0293019D18EEA6
:10572000100A3146FFF7DCF900F1300A019B05F859
:1057300001ABEA1A029B934209DD18EE101A00230E
:105740000A22204600F0E4F908EE100AE7E7029B7F
:10575000002BC8BF1D46019BD8BF01251D444FF03B
:10576000000818EE101A0122204600F081FB314695
:1057700008EE100A00F0ECFB002891DC02D11AF0D0
:10578000010F8DD12B461D4613F8012D302AFAD07A
:10579000D7E6019A9A4284D1009B013300933123CA
:1057A0001370CEE6094BFFF795BA219B002B7FF4CF
:1057B0006EAA074BFFF78EBA029B002BAEDC069B4E
:1057C000022B3FF7A8AEA9E7CA7C0008B67F000805
:1057D000627C00080EB403B5014603AB054853F8DC
:1057E000042B0068019300F051FE02B05DF804EB59
:1057F00003B07047140000202DE9F84FDFF86CA0CB
:1058000007468946164601F067F9DAF8004034B1D8
:105810004B46984613F8012B3AB13D2AF9D1384648
:1058200001F060F90020BDE8F88FA8EB0908A34655
:1058300054F8040B0028F2D04246494600F0CFFF4E
:105840000028F4D154F8043C03EB080513F80830A1
:105850003D2BECD1DAF80030ABEB03039B1038465C
:10586000336001F03FF9681CDDE700BF0400002051
:1058700007B501AAFFF7C0FF03B05DF804FB000005
:1058800038B5074D00230446084611462B6002F048
:1058900063F8431C02D12B6803B1236038BD00BFFD
:1058A000B803002000487047800000202DE9F04137
:1058B000D0E900670C464F4A002330463946FBF7D3
:1058C000DBF9394605464B4A30460023FBF7D4F94D
:1058D000002A05F52F20B7BF02F5A83200F66C2389
:1058E00000F66B2302F5C0724FF46160B2FBF0F179
:1058F00000FB11223C20A160B2FBF0F100FB112261
:10590000616022600721DA1C92FBF1F1C1EBC10159
:10591000521A48BF0732384D3848A261002BB7BF32
:10592000A3F50E3293FBF5F5A2F52C7292FBF5F57B
:1059300000FB053048F6AC62B0FBF2F2024440F2E4
:10594000B453B0FBF3F1521A40F26D1C2C49B0FB7A
:10595000F1F16427521AB2FBFCF1B2FBF3F3B1FB95
:10596000F7F6F31A03440CFB1133992203EB830E71
:105970000EF1020E03F1010CBEFBF2F042430232C3
:105980004FF00508B2FBF8F2ACEB020C40F2F95212
:10599000964594BF02226FF0090210444FF4C8727A
:1059A00002FB0515012898BF0135B3F5997F0DD38A
:1059B000A3F59973E361A5F26C750023C4E90405AE
:1059C000C4F80CC023622046BDE8F0818A0702D1EA
:1059D00007FB16165EB94FF4C872B1FBF2F602FB74
:1059E0001612B2FA82F252093B331344E2E7012263
:1059F000FAE700BF80510100B13A02004FC5FDFF38
:105A0000B03A020000487047C80100207047704754
:105A10007047704770470A44914200F1FF3300D14C
:105A2000704710B511F8014B03F8014F9142F9D1BD
:105A300010BD00000148FFF7EBBF00BFB10300201D
:105A40000148FFF7E7BF00BFB103002070B5466A09
:105A500004460D4676B91020FEF72CF80246606227
:105A600020B9184B18486621FFF71CF8C0E90166F9
:105A70000660C660666AF36883B1636ADB6853F8E0
:105A80002500B8B9012101FA05F6721D92002046E1
:105A900000F060FB60B1C0E901560EE02122042154
:105AA000204600F057FB636AF060DB68002BE4D10E
:105AB000002070BD026843F825200023C0E90333AD
:105AC000F7E700BFE47A0008DB7C000870B5466A9F
:105AD00005460C4676B91020FDF7ECFF02466862D9
